{"abi":[{"type":"function","name":"count","inputs":[],"outputs":[{"name":"","type":"uint256","internalType":"uint256"}],"stateMutability":"view"},{"type":"function","name":"getCount","inputs":[],"outputs":[{"name":"","type":"uint256","internalType":"uint256"}],"stateMutability":"view"},{"type":"function","name":"increment","inputs":[],"outputs":[],"stateMutability":"nonpayable"}],"bytecode":{"object":"0x6080604052348015600f57600080fd5b5060dd80601d6000396000f3fe6080604052348015600f57600080fd5b5060043610603c5760003560e01c806306661abd146041578063a87d942c14605b578063d09de08a146062575b600080fd5b604960005481565b60405190815260200160405180910390f35b6000546049565b6068606a565b005b6001600080828254607a91906081565b9091555050565b8082018082111560a157634e487b7160e01b600052601160045260246000fd5b9291505056fea2646970667358221220c1d3efdb1d0a6add5e2df79e8630321a89223aeaa95906eabbed2076d7b1dbfb64736f6c63430008190033","linkReferences":{}},"methodIdentifiers":{"count()":"06661abd","getCount()":"a87d942c","increment()":"d09de08a"},"id":0}